:020000040800F2
:10000000F00600209D0100088D310008411E000807
:100010008931000831030008213800080000000081
:100020000000000000000000000000009131000806
:1000300035030008000000008F31000893310008EC
:10004000B7010008B7010008B7010008B7010008B0
:10005000B7010008B7010008B7010008B7010008A0
:10006000B7010008B7010008B7010008B701000890
:10007000B7010008B7010008B7010008B701000880
:10008000B7010008B7010008B7010008B701000870
:10009000B7010008B7010008B7010008B701000860
:1000A000B7010008B7010008B7010008B701000850
:1000B000B70100086D320008B7010008551E00089E
:1000C000451E0008B7010008B7010008B701000885
:1000D000B7010008B7010008B7010008B701000820
:1000E000B7010008B7010008B7010008B701000810
:1000F000B7010008B7010008B7010008B701000800
:10010000B7010008B7010008B7010008B7010008EF
:10011000B7010008B7010008B7010008B7010008DF
:10012000B7010008B7010008B7010008B7010008CF
:10013000B7010008B7010008B7010008B7010008BF
:10014000B7010008B7010008B7010008B7010008AF
:10015000B7010008B7010008B7010008B70100089F
:10016000B7010008B7010008B7010008B70100088F
:10017000B7010008B7010008B7010008000000003F
:10018000B7010008B7010008DFF80CD000F0BEF896
:1001900000480047FD400008F00600200648804760
:1001A00006480047FEE7FEE7FEE7FEE7FEE7FEE75C
:1001B000FEE7FEE7FEE7FEE751320008890100088E
:1001C0002DE9F05F0546002092469B46884606468C
:1001D000814640241BE0284641464746224600F01F
:1001E00084F853465A46C01A914110D31146184616
:1001F000224600F06BF82D1A67EB01084F462246A5
:100200000120002100F062F817EB00094E41201E8A
:10021000A4F10104DFDC484631462A464346BDE8E6
:10022000F09F2DE9F0410024061B254671F10006E0
:1002300005DA01240027D0EB070067EB0101161E49
:1002400073F1000605DA0027D2EB0702012567EB00
:100250000303FFF7B5FF86460E4617469C46AC42A1
:1002600004D00025D0EB050E65EB010624B100207B
:10027000D2EB000760EB030C704631463A4663460A
:10028000BDE8F08140EA01039B0703D009E008C9FB
:10029000121F08C0042AFAD203E011F8013B00F84B
:1002A000013B521EF9D27047D2B201E000F8012B97
:1002B000491EFBD270470022F6E710B513460A46E6
:1002C00004461946FFF7F0FF204610BD202A04DB44
:1002D000203A00FA02F1002070479140C2F1200359
:1002E00020FA03F3194390407047202A04DB203A98
:1002F00021FA02F00021704721FA02F3D040C2F146
:10030000200291400843194670470000064C074DF3
:1003100006E0E06840F0010394E8070098471034D5
:10032000AC42F6D3FFF734FF0C4600082C46000819
:1003300000BFFEE770477047014691F8350002287C
:1003400003D08020486501207047052081F83500E2
:100350000868006820F001000A6810600020F3E7D8
:10036000014691F83500704770B5044600F016F963
:1003700006462546681C10B104480078054400BFB5
:1003800000F00CF9801BA842FAD370BD0C000020CD
:10039000F8B502460B460025002400200021DCE0D1
:1003A000012606FA01F51E6806EA0504AC4273D17F
:1003B0005E68012E08D05E68022E05D05E68112EA0
:1003C00002D05E68122E13D190684F000326BE4003
:1003D000B0434F00DE68BE40304390605068012655
:1003E0008E40B0431E79C6F300168E4030435060F5
:1003F000D0684F000326BE40B0434F009E68BE4009
:100400003043D0605E68022E02D05E68122E13D197
:10041000CF0802F1200656F827004E07F70E0F26E8
:10042000BE40B0434F07FF0E1E69BE403043CF08A9
:1004300002F1200646F8270010684F000326BE4050
:10044000B0431E7906F003064F00BE4030431060F3
:100450005E6806F08056B6F1805F7DD100BF002651
:100460000096404E366846F480463E4F3E603E461B
:10047000366806F48046009600BF00BF3A4E8F08EB
:1004800056F827008E07370F0F26BE40B043374E71
:10049000B24202D1002624E05EE0354EB24201D1E4
:1004A00001261EE0334EB24201D1022619E0324E3F
:1004B000B24201D1032614E0304EB24201D10426EB
:1004C0000FE02F4EB24201D105260AE02D4EB24276
:1004D00001D1062605E02C4EB24201D1072600E0EC
:1004E00008268F073F0FBE4030431F4E8F0846F847
:1004F0002700264E3068A0435E6806F48036B6F5C5
:10050000803F00D12043214E3060361D3068A0432B
:100510005E6806F40036B6F5003F00D120431B4E5E
:10052000361D3060361D3068A0435E6806F48016C4
:10053000B6F5801F00D12043144E08363060361DBA
:100540003068A0435E6806F40016B6F5001F00D1BF
:1005500020430E4E0C363060491C1029FFF420AFAA
:10056000F8BD000044380240083801400000024055
:100570000004024000080240000C0240001002404B
:100580000014024000180240001C0240003C0140E0
:100590000AB1816101E00B04836170470148006882
:1005A0007047000004000020704770472DE9F84FA5
:1005B0000446206847692068D0F80480002594F834
:1005C0003E90C7F3002040B1C8F3002028B145F0A9
:1005D00001056FF4807021684861C7F3402040B185
:1005E000C8F3002028B145F002056FF400702168BF
:1005F0004861C7F3802070B3C8F3002058B3CA46DF
:10060000B4F82AB094F83D60206B0090BAF1200F46
:100610000FD1BBF1000F0CD1212E06D0292E04D012
:10062000282E06D10098212803D1204602F078FA1E
:1006300011E06FF480602168486145F00405B9F16C
:10064000100F02D0B9F1400F05D12068006840F4C6
:10065000007021680860C7F3C02040B1C8F30020D3
:1006600028B145F008056FF40060216848612DB19C
:10067000206C28432064204601F058FCBDE8F88F28
:100680002DE9F0470546002728684668D5F82C80F4
:1006900095F83E9095F83DA0B9F1100F02D0B9F150
:1006A000400F78D1286887692868446904F0010000
:1006B00060B9B8F52A0F02D0B8F12A4F01D1012054
:1006C00000E00020012801D1BDE8F08704F001001E
:1006D00048B1C6F3402030B1284601F0C3FB28469C
:1006E00002F0FDF8ACE0C4F3C00030B1C6F3402026
:1006F00018B1284601F0AAFFA2E0C4F3400030B1CF
:10070000C6F3402018B1284601F0B5FF98E0C7F3C2
:100710008000F8B12868406800F40060B0F5006F10
:10072000E0D0C4F3C01048B1C6F3802030B1C4F3A8
:10073000800018B9284601F01DFF81E0C4F3800055
:1007400000287DD0C6F34020002879D0284601F04B
:10075000B9FE75E02868406800F40060B0F5006FED
:100760006ED0C4F3801048B1C6F3802030B1C4F31A
:10077000800018B9284601F05DFD61E0C4F38000F7
:1007800000285DD0C6F34020002859D0284601F04B
:10079000BEFC55E0FFE7286C10B12868446903E00F
:1007A0002868876928684469C4F3400058B1C6F3D3
:1007B000402040B1286C08B128688769394628462E
:1007C00002F07AF93CE0C4F3001030B1C6F34020E7
:1007D00018B1284602F0F4F932E0BAF1210F02D044
:1007E000BAF1290F16D1C4F3C01048B1C6F3802066
:1007F00030B1C4F3800018B9284602F03AF91FE07E
:10080000C4F38000E0B1C6F34020C8B1284602F02E
:1008100023F915E0C4F3801048B1C6F3802030B14D
:10082000C4F3800018B9284602F0F3F808E0C4F3D6
:10083000800028B1C6F3402010B1284602F0DCF851
:1008400000BF41E77047000070B504460CB90120B5
:1008500070BD94F83D0028B9002084F83C00204683
:1008600000F02EFB242084F83D002068006820F072
:100870000100216808602068006840F40040216899
:1008800008602068006820F400402168086000F0DB
:100890000BFD05465C496068884206D85B48854286
:1008A00001D2012007E0002005E05948854201D22D
:1008B000012000E00020012800D1C9E75548B5FB20
:1008C000F0F62068406820F03F003043216848601F
:1008D0004D496068884201D8701C07E04FF496705B
:1008E00070434FF47A71B0FBF1F0401C2168096A43
:1008F00021F03F010843216808624349606888424B
:1009000014D8681E61684900B0FBF1F0401CC0F3C8
:100910000B00042801D204203DE0681E61684900F4
:10092000B0FBF1F0401CC0F30B0034E0A06838B914
:10093000681E616801EB4101B0FBF1F0401C0AE068
:10094000681E616801EBC10202EB0111B0FBF1F01E
:10095000401C40F48040C0F30B0008B901201AE0AD
:10096000A06848B9681E616801EB4101B0FBF1F075
:10097000401CC0F30B000CE0681E616801EBC10273
:1009800002EB0111B0FBF1F0401CC0F30B0040F48E
:10099000804040F400402168C9694CF6FF729143E1
:1009A00008432168C861D4E9070108432168096840
:1009B00021F0C001084321680860D4E9031008430E
:1009C0002168896848F2FF329143084321688860B2
:1009D000D4E9050108432168C96821F0FF010843F3
:1009E0002168C8602068006840F001002168086044
:1009F00000202064202084F83D000020206384F83B
:100A00003E0000BF24E70000A086010080841E0095
:100A100000093D0040420F007047000010B5044639
:100A20000A23082205A1084801F09EF90A230122A1
:100A30000649054801F098F910BD0000745F657320
:100A40005F6C613F00000000B0000020000000204B
:100A5000704700002DE9F84304468946174698463A
:100A6000089EFFF79BFD054694F83D0020287DD1A8
:100A700019230122B2492046009502F095F910B1E0
:100A80000220BDE8F88300BF94F83C00012801D1A2
:100A90000220F6E7012084F83C0000BF20680068CF
:100AA00000F0010028B92068006840F001002168CA
:100AB00008602068006820F4006021680860222037
:100AC00084F83D00102084F83E0000202064676216
:100AD000A4F82A80608D20859A48E0622B46324631
:100AE0004946204601F0F8FB08B10120C9E7208DF6
:100AF00088B900BF002000902068406900902068FD
:100B00008069009000BF00BF2068006840F400705A
:100B10002168086047E0208D012817D1206800680F
:100B200020F480602168086000BF002000902068E9
:100B30004069009020688069009000BF00BF206875
:100B4000006840F40070216808602CE0208D0228C5
:100B500018D12068006820F480602168086020684F
:100B6000006840F400602168086000E0E6E000BF33
:100B70000020009020684069009020688069009003
:100B800000BF10E02068006840F4806021680860C1
:100B900000BF0020009020684069009020688069B4
:100BA000009000BF00BFBAE0208D03287ED8208DC2
:100BB000012815D12A463146204602F09AF908B19B
:100BC00001205EE720680069616A0870606A401C65
:100BD0006062208D401E2085608D401E60859EE0F5
:100BE000208D02282AD133460022574920460095FD
:100BF00002F0DAF808B1012043E72068006840F409
:100C000000702168086020680069616A0870606A85
:100C1000401C6062208D401E2085608D401E6085D6
:100C200020680069616A0870606A401C6062208DFB
:100C3000401E2085608D401E608570E03346002296
:100C400041492046009502F0AFF808B1012018E7AD
:100C50002068006820F480602168086020680069CE
:100C6000616A0870606A401C6062208D401E2085A9
:100C7000608D401E60853346002233492046009532
:100C800002F092F808B10120FBE62068006840F409
:100C900000702168086020680069616A0870606AF5
:100CA000401C6062208D401E208500E010E0608DB9
:100CB000401E608520680069616A0870606A401C97
:100CC0006062208D401E2085608D401E608526E07C
:100CD0002A463146204602F00CF908B10120D0E640
:100CE00020680069616A0870606A401C6062208D3B
:100CF000401E2085608D401E608520684069C0F3DD
:100D0000800060B120680069616A0870606A401CF8
:100D10006062208D401E2085608D401E6085208D84
:100D200000287FF441AF202084F83D00002084F8A3
:100D30003E0000BF84F83C0000BFA2E60220A0E60F
:100D4000020010000000FFFF040001002DE9F8433D
:100D50000446894616461F46DDF82080FFF71EFC34
:100D6000054694F83D0020287ED1192301225149DF
:100D70002046009502F018F810B10220BDE8F88373
:100D800000BF94F83C00012801D10220F6E70120C1
:100D900084F83C0000BF2068006800F0010028B91A
:100DA0002068006840F00100216808602068006841
:100DB00020F4006021680860212084F83D001020A4
:100DC00084F83E000020206466626785608D20857F
:100DD0003948E0622B4642464946204601F014FB62
:100DE00008B10120CAE700BF0020009020684069D8
:100DF000009020688069009000BF00BF44E02A4650
:100E00004146204602F0B5F850B1206C042805D1C7
:100E10002068006840F40070216808600120ADE798
:100E2000606A007821680861606A401C6062608DB9
:100E3000401E6085208D401E208520684069C0F3DB
:100E4000800070B1208D60B1606A0078216808610F
:100E5000606A401C6062608D401E6085208D401E6F
:100E600020852A46414600E022E0204601F06EFF40
:100E700050B1206C042805D12068006840F400704F
:100E800021680860012079E7208D0028B7D120680B
:100E9000006840F4007021680860202084F83D005C
:100EA000002084F83E0000BF84F83C0000BF65E7E6
:100EB000022063E7020010000000FFFF7047704748
:100EC00010B586B00446142101A8FFF7F4F92349B0
:100ED0002068884240D100BF002000902048006870
:100EE00040F002001E4908600846006800F0020059
:100EF000009000BF00BF4FF4C0700190122002901C
:100F000001200390032004900420059001A91548B6
:100F1000FFF73EFA00BF0020009011481030006833
:100F200040F400100E49103108600846006800F4D3
:100F30000010009000BF00BF002211461F2000F0EB
:100F400099F81F2000F086F800221146202000F0BA
:100F500091F8202000F07EF806B010BD005400404B
:100F60003038024000040240704770470348006870
:100F700003490978084401490860704704000020CB
:100F80000C00002010B50D48006840F400700B49BB
:100F900008600846006840F4806008600846006801
:100FA00040F480700860032000F0A2F8002000F0F8
:100FB00007F800F02BF8002010BD0000003C0240B4
:100FC00070B504460E4800784FF47A71B1FBF0F02A
:100FD0000C490968B1FBF0F5284600F021FC08B186
:100FE000012070BD102C07D200222146501E00F0B7
:100FF00041F80548046001E00120F2E70020F0E735
:101000000C000020100000200800002008B500BFE0
:10101000002000900E48006840F480400C490860B1
:101020000846006800F48040009000BF00BF00BF89
:1010300000200090081F006840F08050091F0860E1
:101040000846006800F08050009000BF00BF08BD57
:101050004438024001460846002809DB00F01F031F
:1010600001229A4043099B0003F1E023C3F80021C9
:1010700000BF70472DE9F05F80460D4616460027F9
:1010800002F0D0FB074639462A46334601F00700F6
:10109000C0F1070ABAF1040F02D94FF0040A01E0C7
:1010A000C0F1070AD14600F1040ABAF1070F02D2D3
:1010B0004FF0000A01E0A0F1030AD4464FF0010A04
:1010C0000AFA09FAAAF1010A0AEA020A0AFA0CFA69
:1010D0004FF0010B0BFA0CFBABF1010B0BEA030B0E
:1010E0004AEA0B042146404602F0A4FBBDE8F09F0B
:1010F00000BF00F00702064B19684FF6FF031940C6
:10110000044B0B4343EA0221014B196000BF7047B7
:101110000CED00E00000FA0570B504460D460CB970
:10112000012070BD5848006800F00F00A84209D2A5
:1011300055490D700846006800F00F00A84201D024
:101140000120EEE7207800F0020002281DD120786F
:1011500000F00400042805D14C48006840F4E05039
:101160004A490860207800F00800082805D147485F
:10117000006840F46040454908604448006820F039
:10118000F000A168084341490860207800F00100A0
:10119000A8B36068012807D13C4808380068C0F34C
:1011A0004040B8B90120BCE76068022802D06068FE
:1011B000032807D1354808380068C0F3406048B9B3
:1011C0000120AEE7314808380068C0F3400008B994
:1011D0000120A6E72D48006820F00300616808435D
:1011E0002A490860FFF7DAF9064609E0FFF7D6F961
:1011F000801B41F28831884202D9032091E707E041
:101200002248006800F00C006168B0EB810FEDD15E
:101210001D48006800F00F00A84209D91A490D7056
:101220000846006800F00F00A84201D0012078E7CE
:10123000207800F00400042807D11448006820F446
:10124000E050E168084311490860207800F0080088
:10125000082808D10D48006820F46040216940EA60
:10126000C1000A49086000F03FF808490968C1F365
:101270000311074A515CC8400649086006480068E7
:10128000FFF79EFE00204CE7003C02400838024079
:10129000F445000810000020080000200148006804
:1012A000704700001000002000B5FFF7F7FF044969
:1012B0000968C1F38221034A515CC84000BD0000A7
:1012C000083802400446000800B5FFF7E7FF04496C
:1012D0000968C1F34231034A515CC84000BD0000B7
:1012E00008380240044600082DE9F0470024002594
:1012F0000026A1462548006800F00C0020B1042813
:1013000005D008283AD105E0DFF8849039E0DFF80D
:10131000849036E01D48001F006800F03F041B4821
:10132000001F006800F4800078B11A481749091FAF
:101330000968C1F38811A0FB017001462246002311
:101340003846FEF73DFF05460EE011480F49091FDC
:101350000968C1F38811A0FB0170014622460023F1
:101360003846FEF72DFF05460848001F0068C0F309
:101370000140401C4600B5FBF6F902E0DFF8109092
:1013800000BF00BF4846BDE8F087000008380240B3
:101390000024F40040787D01F8B504460CB9012022
:1013A000F8BD207800F00100002874D0F9480068EA
:1013B00000F00C0004280DD0F648006800F00C0086
:1013C000082813D1F348001F006800F48000B0F52E
:1013D000800F0BD1EF4808380068C0F34040002868
:1013E00059D06068002856D10120D9E700BF606855
:1013F000B0F5803F08D1E7480838006840F48030F5
:10140000E449083908601EE06068B0F5A02F0DD1EE
:10141000E0480838006840F48020DE490839086058
:101420000846006840F4803008600CE0D94808386D
:10143000006820F48030D749083908600846006801
:1014400020F48020086000BF606890B1FFF7A6F824
:10145000054606E0FFF7A2F8401B642801D90320E7
:101460009EE7CC4808380068C0F340400028F1D01F
:1014700011E0FFF793F8054606E0FFF78FF8401BF1
:10148000642801D903208BE7C24808380068C0F3FC
:1014900040400028F1D1207800F0020002285FD1FE
:1014A000BC48006800F00C0058B1BA48006800F071
:1014B0000C0008281CD1B748001F006800F4800009
:1014C000B0B9B44808380068C0F3400020B1E06803
:1014D000012801D0012063E7AE480838006820F0F9
:1014E000F800216940EAC100AA490839086037E0DC
:1014F000E06800B30120A8490860FFF74FF80546EF
:1015000006E0FFF74BF8401B022801D9032047E70C
:10151000A04808380068C0F340000028F1D09D487A
:101520000838006820F0F800216940EAC1009949B4
:101530000839086014E0002097490860FFF72EF88A
:10154000054606E0FFF72AF8401B022801D90320D0
:1015500026E7904808380068C0F340000028F1D121
:10156000207800F0080008282CD16069A8B101207B
:101570008A490860FFF712F8054606E0FFF70EF803
:10158000401B022801D903200AE782486C3000681A
:10159000C0F340000028F1D014E000207F4908602B
:1015A000FEF7FCFF054606E0FEF7F8FF401B0228A9
:1015B00001D90320F4E677486C300068C0F340009E
:1015C0000028F1D1207800F00400042870D1002711
:1015D00070483830006800F0805090B900BF00209B
:1015E00000906C483830006840F0805069493831CC
:1015F00008600846006800F08050009000BF00BFFF
:1016000001276748006800F48070B0B9644800683A
:1016100040F4807062490860FEF7C0FF054606E0AE
:10162000FEF7BCFF401B022801D90320B8E65C4846
:10163000006800F480700028F2D000BFA068012884
:1016400008D154486830006840F0010051496831C1
:1016500008601DE0A06805280DD14E48683000687C
:1016600040F004004B49683108600846006840F0CB
:10167000010008600CE047486830006820F0010075
:101680004449683108600846006820F0040008609A
:1016900000BFA068A8B1FEF781FF054609E0FEF78C
:1016A0007DFF401B41F28831884202D9032077E652
:1016B00026E0384868300068C0F340000028EED0CB
:1016C00013E0FEF76BFF054608E0FEF767FF401BDF
:1016D00041F28831884201D9032061E62D48683003
:1016E0000068C0F340000028EFD1012F07D129483E
:1016F0003830006820F0805026493831086000BF3B
:10170000A069002845D02348006800F00C00082894
:101710005DD0A069022845D100201F490866FEF768
:101720003DFF054606E0FEF739FF401B022801D9C0
:10173000032035E6174808380068C0F340600028E9
:10174000F1D1D4E907010843616A40EA811101221D
:10175000A06AC2EB500041EA00412C20005D41EA42
:1017600000600C49091F086001200B490866FEF75C
:1017700015FF054606E0FEF711FF401B022801D9C0
:1017800003200DE6034808380068C0F340600028D5
:10179000F1D03FE00838024000004742800E474247
:1017A0000070004000201C490866FEF7F7FE054661
:1017B00006E0FEF7F3FE401B022801D90320EFE507
:1017C00016480068C0F340600028F2D122E0A0690A
:1017D000012800D1E4E511480830066806F48001CC
:1017E000E069814214D106F03F01206A81420FD1A5
:1017F00047F6C0703040616A884209D106F4403132
:10180000A06A814204D106F07061E06A814201D091
:101810000120C5E50020C3E5000047420038024032
:1018200070B504462546681EB0F1807F01D30120C3
:101830000FE0681E4FF0E02148610F214FF0FF30AC
:1018400001F0F8FF00204FF0E021886107200861D7
:10185000002070BD7047704730B502460B4600BF90
:1018600092F83C00012801D1022030BD012082F80D
:101870003C0000BF022082F83D00106844681068F8
:10188000816824F070041868044310684460184D9F
:101890001068A8421BD01068B0F1804F17D0154DCA
:1018A0001068A84213D0144D1068A8420FD0134DF1
:1018B0001068A8420BD0124D1068A84207D0114DF5
:1018C0001068A84203D0104D1068A84205D121F03D
:1018D00080015868014310688160012082F83D0052
:1018E00000BF002082F83C0000BF00BFBDE7000041
:1018F000000001400004004000080040000C0040CF
:1019000000040140004001400018004010B50446AA
:101910000CB9012010BD94F83D0028B9002084F8CE
:101920003C00204600F00CF8022084F83D00211D08
:10193000206801F0A3FC012084F83D000020E9E7C5
:1019400038B504460E492068884217D100BF0020F0
:1019500000900C48006840F002000A490860084600
:10196000006800F00200009000BF00BF0022114696
:101970001D20FFF77FFB1D20FFF76CFB38BD00002B
:10198000000400404038024001460868C06840F04A
:1019900001000B68D8600868806800F00702062A1A
:1019A00005D00868006840F001000B68186000204E
:1019B00070472DE9F04104460D4600BF94F83C0005
:1019C000012802D10220BDE8F081012084F83C000A
:1019D00000BF022084F83D002068866826F0770664
:1019E00026F47F46206886602868502833D00CDCB7
:1019F000202850D004DC00284BD0102851D149E0D9
:101A0000302849D040284CD139E060282DD07028AA
:101A100007D0B0F5805F03D0B0F5005F41D10DE095
:101A200040E0D5E902136A68206801F093FC206861
:101A3000866846F077062068866033E0D5E90213B1
:101A40006A68206801F086FC2068806840F4804065
:101A50002168886026E0EA686968206801F08EFCE9
:101A60005021206801F081FC1CE0EA686968206868
:101A700001F097FC6021206801F077FC12E0EA6831
:101A80006968206801F07AFC4021206801F06DFC53
:101A900008E000BF00BF00BF2968206801F065FCB6
:101AA00000E000BF00BF012084F83D0000BF00201F
:101AB00084F83C0000BF00BF85E7704710B50446BE
:101AC00020680069C0F34000D8B12068C068C0F346
:101AD0004000B0B16FF0020021680861012020775A
:101AE0002068806900F0030018B12046FFF7E5FF89
:101AF00005E0204600F0ADF8204600F0ABF80020ED
:101B0000207720680069C0F38000D8B12068C068E1
:101B1000C0F38000B0B16FF00400216808610220BA
:101B200020772068806900F4407018B12046FFF7E4
:101B3000C4FF05E0204600F08CF8204600F08AF84B
:101B40000020207720680069C0F3C000D8B1206869
:101B5000C068C0F3C000B0B16FF008002168086130
:101B6000042020772068C06900F0030018B12046E7
:101B7000FFF7A3FF05E0204600F06BF8204600F0D9
:101B800069F80020207720680069C0F30010D8B100
:101B90002068C068C0F30010B0B16FF01000216879
:101BA0000861082020772068C06900F4407018B1EF
:101BB0002046FFF782FF05E0204600F04AF8204665
:101BC00000F048F8002020772068006900F001004C
:101BD00058B12068C06800F0010030B16FF001001A
:101BE00021680861204600F037F820680069C0F3DA
:101BF000C01058B12068C068C0F3C01030B16FF099
:101C00008000216808612046FFF724FE20680069F3
:101C1000C0F3801058B12068C068C0F3801030B1A4
:101C20006FF0400021680861204600F01FF820682E
:101C30000069C0F3401058B12068C068C0F340107C
:101C400030B16FF02000216808612046FFF703FEE5
:101C500010BD70477047000010B5044602F06AFBE3
:101C60000148FFF791FE10BD70000020704710B5CD
:101C700004460CB9012010BDA06900B100E000BF0E
:101C800094F8390028B9002084F83800204600F084
:101C900027F8242084F839002068C06820F4005018
:101CA0002168C860204601F091FB2068006920F49B
:101CB0009040216808612068406920F02A0021686E
:101CC00048612068C06840F400502168C860002066
:101CD000E063202084F8390084F83A000020CAE745
:101CE00010B586B00446142101A8FEF7E4FA1B499A
:101CF000206888422FD100BF00200090184800685B
:101D000040F40030164908600846006800F40030CE
:101D1000009000BF00BF00BF0020009010481038A6
:101D2000006840F001000E4910390860084600685C
:101D300000F00100009000BF00BF0C2001900220C5
:101D4000029001200390032004900720059001A930
:101D50000448FEF71DFB06B010BD00000044004023
:101D600040380240000002402DE9F84304460D4689
:101D700016461F464FF0000994F8390020285DD11F
:101D800005B116B90120BDE8F88300BF94F838000A
:101D9000012801D10220F6E7012084F8380000BFB5
:101DA0000020E063212084F83900FEF7F7FB81462C
:101DB000A684E68400BF002084F8380000BF2BE032
:101DC000E08C401EE084A068B0F5805F16D14B46E1
:101DD000002280212046009701F0ECFC08B103208E
:101DE000D1E7A846B8F80000C0F3080021684860B1
:101DF000206908B9AD1C0FE06D1C0DE04B460022B8
:101E000080212046009701F0D5FC08B10320BAE7F5
:101E100015F8010B21684860E08C0028D0D14B46B2
:101E2000002240212046009701F0C4FC08B10320A5
:101E3000A9E7202084F839000020A4E70220A2E7C7
:101E400000BFFEE710B50248FEF7B0FB10BD000072
:101E50001C00002010B50248FEF712FC10BD000067
:101E60001C000020C16AB1F52A0F02D10121C16214
:101E700005E0C16AB1F12A4F01D10821C162704762
:101E800070B50546AC6B94F83D60606B10B10020F6
:101E9000616BC863A06B10B10020A16BC8632068A0
:101EA000006820F480602168086000206085606B15
:101EB00010B10020616B0865A06B10B10020A16B10
:101EC00008652068006820F001002168086094F827
:101ED0003D0060280AD1202084F83D00002084F8CD
:101EE0003E0020642046FEF75FFB1EE006F028005F
:101EF000282811D12068006840F00100216808609E
:101F00002068006840F48060216808600020206339
:101F1000282084F83D0005E0202084F83D000020C2
:101F200084F83E002046FEF78DFC70BD70B5044677
:101F300094F83D6094F83E00102807D1222E05D178
:101F40002068006820F400602168086006F028001E
:101F5000282805D100202063282084F83D000FE0C8
:101F60002068406800F40060B0F5006F04D0602E77
:101F700002D0202084F83D000020206384F83E0039
:101F80002068406800F40060B0F5006F40D1206820
:101F9000406820F4006021684860606B90F835006C
:101FA000012814D04848616B0865606BFEF7C4F9DE
:101FB00000285BD02068006820F0010021680860DC
:101FC000202084F83D00606B016D88474EE03E485C
:101FD000A16B0865A06BFEF7AFF9002846D020681A
:101FE0004069C0F3801030B120680069616A0870F0
:101FF000606A401C60622068006820F0010021686F
:102000000860202084F83D00A06B016D88472DE01A
:1020100094F83D0060281AD1202084F83D0000206B
:10202000206420684069C0F3801030B120680069E6
:10203000616A0870606A401C60622068006820F075
:102040000100216808602046FEF7AEFA0EE0206825
:102050004069C0F3801030B120680069616A08707F
:10206000606A401C60622046FEF7ECFB256C05F0C0
:10207000010058B905F00200022807D005F004005D
:10208000042803D005F00800082805D1206840681E
:1020900020F4E0602168486094F83D60206C00F016
:1020A000040004280ED1282E0CD10848E06200203C
:1020B0002063202084F83D00002084F83E00204664
:1020C000FEF7AAFC70BD0000811E00080000FFFFA3
:1020D000014608684069C0F38020B0B16FF48060A9
:1020E0000A68506100200863202081F83D0000202C
:1020F00081F83E00086C40F00400086400BF002036
:1021000081F83C0000BF012070470020FCE770B55B
:102110000446E56A608D042810D12068406820F4E8
:1021200080602168486020680069616A0870606AA0
:10213000401C6062608D401E60857AE0608D0328DF
:102140001AD12068406820F4806021684860042D1E
:1021500007D0022D05D02068006820F48060216837
:10216000086020680069616A0870606A401C6062EB
:10217000608D401E60855CE0608D02284FD1012D8E
:1021800001D0102D06D12068006820F480602168FD
:10219000086012E0042D01D0022D06D120680068ED
:1021A00040F480602168086007E0102D05D02068A9
:1021B000006840F400702168086020680069616A66
:1021C0000870606A401C6062608D401E60852068F7
:1021D0000069616A0870606A401C6062608D401E20
:1021E00060852068406820F44070216848602020A5
:1021F00084F83D0094F83E00402807D1002084F880
:102200003E0020632046FEF759FE12E0002084F8CD
:102210003E00122020632046FEF700FC09E0206803
:102220000069616A0870606A401C6062608D401ECF
:10223000608570BD70B5044694F83D0022284AD1EF
:10224000658D032D13D920680069616A0870606A82
:10225000401C6062608D401E6085608D032839D10E
:102260002068406820F480602168486032E0E06ABD
:1022700002282FD0012D00D01DBB2068006820F45B
:102280008060216808602068406820F4E060216870
:10229000486020680069616A0870606A401C60627A
:1022A000608D401E6085202084F83D0094F83E003B
:1022B000402807D1002084F83E0020632046FEF726
:1022C000FDFD07E0002084F83E0012202063204638
:1022D000FEF7A4FB00BF70BD2DE9F84304460D4690
:1022E00090461E46E76A2068006840F480602168D6
:1022F0000860082F04D0012F02D017F5803F06D1C7
:102300002068006840F480702168086008E0206B55
:10231000112805D12068006840F4807021680860A9
:10232000434600224FF001112046009600F03CFD8C
:1023300050B12068006800F4807010B14FF4007054
:1023400020640320BDE8F8832069B0F5804F05D1F3
:10235000E8B240F001002168086147E005F44070F0
:10236000F02141EAE01021680861334642462549E0
:10237000204600F05CFD08B10120E3E7E8B22168E7
:102380000861334642461F49891F204600F04FFD31
:1023900008B10120D6E700BF002000902068406906
:1023A000009020688069009000BF00BF206800682E
:1023B00040F4807021680860434600224FF001110C
:1023C0002046009600F0F0FC48B12068006800F458
:1023D000807010B14FF4007020640320B2E705F460
:1023E0004070F12141EAE01021680861334642461D
:1023F0000449891F204600F01AFD08B10120A1E719
:1024000000209FE7080001002DE9F84304460D462F
:1024100017469846E66A082E04D0012E02D016F51B
:10242000803F06D12068006840F480702168086011
:1024300008E0206B122805D12068006840F4807005
:10244000216808603B4600224FF001112046CDF87C
:10245000008000F0A9FC50B12068006800F4807092
:1024600010B14FF4007020640320BDE8F8832069A8
:10247000B0F5804F04D105F0FE002168086112E03C
:1024800005F44070F02141EAE010216808614346FC
:102490003A460B49204600F0CAFC08B10120E4E7A7
:1024A000E8B22168086143463A460549891F20463B
:1024B00000F0BDFC08B10120D7E70020D5E70000FF
:1024C0000800010070B50446E56A94F83D00212833
:1024D00048D1608D50B1606A007821680861606AF7
:1024E000401C6062608D401E608542E0082D16D061
:1024F000202D14D015F5803F11D02068406820F4BD
:10250000E0602168486011202063002084F83E00CC
:10251000202084F83D002046FEF79AFA29E0206842
:10252000406820F4E060216848602068006840F45A
:1025300000702168086000202063202084F83D009E
:1025400094F83E00402806D1002084F83E00204642
:10255000FEF7B5FC0DE0002084F83E002046FEF7B3
:1025600077FA06E094F83E00402802D1204600F0B9
:1025700005FA70BD2DE9F041044694F83D5094F8F9
:102580003E70E66A208DB0BB212D3CD1082E16D0BE
:10259000202E14D016F5803F11D02068406820F41A
:1025A000E0602168486011202063002084F83E002C
:1025B000202084F83D002046FEF74AFA44E02068D7
:1025C000406820F4E060216848602068006840F4BA
:1025D00000702168086000202063202084F83D00FE
:1025E00094F83E00402807D1002084F83E002046A1
:1025F000FEF765FC28E006E0002084F83E00204657
:10260000FEF726FA20E0212D03D0402F1CD1222DE9
:102610001AD1608D30B92068406820F4806021684C
:10262000486011E094F83E00402803D1204600F0B5
:10263000A5F909E0606A007821680861606A401CB9
:102640006062608D401E6085BDE8F081416CC9B25A
:1026500002681161416B09B9816B59B1416BC96B5A
:1026600011B9816BC96B29B10168496841F40061F6
:1026700002685160704738B590F83E20C16A036B1C
:1026800090F83D40222C73D1046D64B9402A0AD1E0
:1026900000BF002400940468646900940468A4697D
:1026A000009400BF1AE1046DC4B90469B4F5404F49
:1026B00014D100BF00240094046864690094046885
:1026C000A469009400BF00BF0468246844F48074C7
:1026D00005682C60046D641C0465FFE0448D8CB9B2
:1026E00000BF002400940468646900940468A4692D
:1026F000009400BF00BF0468246844F400740568B7
:102700002C60DDE0448D012C72D111F5803F30D179
:102710000468246824F4806405682C600468646894
:1027200004F40064B4F5006F10D10468246824F444
:10273000806405682C6000BF00240094046864690C
:1027400000940468A469009400BFB9E000BF0024AD
:1027500000940468646900940468A469009400BF4C
:1027600000BF0468246844F4007405682C60A7E086
:10277000A9E0082923D0202921D0122B01D1012939
:102780001DD104290AD0022908D0102906D00468D6
:10279000246824F4806405682C6005E004682468DB
:1027A00044F4806405682C6000BF00240094046831
:1027B000646900940468A469009400BF80E0046820
:1027C000246824F4806405682C6000BF0024009411
:1027D0000468646900940468A469009400BF00BFA1
:1027E0000468246844F4007405682C6068E0FFE71E
:1027F000448D022C3BD1042910D002290ED010297F
:102800000CD00468246824F4806405682C60046893
:10281000246844F4006405682C6005E004682468BA
:1028200044F4806405682C600468646804F40064FF
:10283000B4F5006F10D111F5803F07D0012905D004
:10284000082903D0102901D0202905D10468646823
:1028500044F4805405686C6000BF00240094046850
:10286000646900940468A469009400BF28E00468C7
:10287000246844F4806405682C600468646804F487
:102880000064B4F5006F10D111F5803F07D0012925
:1028900005D0082903D0102901D0202905D10468CA
:1028A000646844F4805405686C6000BF00240094A0
:1028B0000468646900940468A469009400BF00BFC0
:1028C000002404650AE000BF0024009404686469E1
:1028D00000940468A469009400BF00BF38BD90F85C
:1028E0003E1040290ED1016D29B9416C01F0FE0165
:1028F0000268116141E0416CC9B241F00101026816
:1029000011613AE00169B1F5804F20D190F83D1096
:10291000212905D1416C01F0FE010268116105E039
:10292000416CC9B241F0010102681161416B11B102
:10293000416BC96B21B9816BF9B1816BC96BE1B195
:102940000168496841F400610268516015E0016D59
:1029500041B9416C01F44071F02242EAE111026890
:1029600011610AE0016D012907D1416C01F4407148
:10297000F12242EAE111026811617047016D99B9D3
:10298000C16C012907D1816CC9B202681161016D66
:10299000891C01652FE0816CC1F307210268116178
:1029A000016D491C016526E0016D012907D1816C8B
:1029B000C9B202681161016D491C01651BE0016D1E
:1029C000022918D190F83D10222906D10168096822
:1029D00041F48071026811600DE090F83D102129EA
:1029E00009D1416A097802681161416A491C416252
:1029F000418D491E41857047418D49B10168096982
:102A0000426A1170416A491C4162418D491E4185EB
:102A1000704770B5044694F83D50608DD8B1206879
:102A20000069616A0870606A401C6062608D401EC7
:102A30006085608D78B92A2D0DD12068406820F41A
:102A400080602168486022202063282084F83D00AF
:102A50002046FEF789FA70BD418D49B1416A097877
:102A600002681161416A491C4162418D491E4185DC
:102A7000704770B5044694F83D50608DD8B1606AD7
:102A8000007821680861606A401C6062608D401EA9
:102A90006085608D78B9292D0DD12068406820F4BB
:102AA00080602168486021202063282084F83D0050
:102AB0002046FEF75AFA70BD2DE9F04104460D4656
:102AC000002794F83D0000F0280028281CD1206839
:102AD000406820F4806021684860C5F3800000B938
:102AE0000127C5F3C01010B9A08986B201E0208B80
:102AF00086B200BF002084F83C0000BF3246394651
:102B00002046FDF752FD08E06FF0020021684861A1
:102B100000BF002084F83C0000BFBDE8F081000049
:102B200070B5044694F83D50E66A082E01D0202E78
:102B30001FD1282D1DD12148E0622068406820F473
:102B4000E060216848606FF4806021684861206817
:102B5000006820F480602168086000202063202045
:102B600084F83D00002084F83E002046FDF754FF25
:102B700023E0212D1DD11148E06221202063202077
:102B800084F83D00002084F83E002068406820F46E
:102B9000E060216848606FF48060216848612068C7
:102BA000006820F48060216808602046FEF7DDF9A7
:102BB00003E06FF480602168486170BD0000FFFF92
:102BC00038B5044694F83D502068406820F4E06031
:102BD0002168486000BF0020009020684069009094
:102BE0002068006840F001002168086000BF00BF55
:102BF0002068006820F480602168086020684068D0
:102C000000F40060B0F5006F42D1222D01D02A2DD2
:102C10001FD1A06B006840686085608D18B1206C82
:102C200040F0040020642068406820F400602168BF
:102C30004860A06BFDF794FB012829D04148A16BA7
:102C40000865A06BFDF778FB10B3A06B016D88479A
:102C50001EE0606B006840686085608D18B1206C74
:102C600040F0040020642068406820F4006021687F
:102C70004860606BFDF774FB012809D03148616B37
:102C80000865606BFDF758FB10B1606B016D8847FC
:102C9000608D18B320684069C0F3800048B1206897
:102CA0000069616A0870606A401C6062608D401E45
:102CB000608520684069C0F3801048B120680069D1
:102CC000616A0870606A401C6062608D401E6085A9
:102CD000608D18B1206C40F004002064206C18B1A5
:102CE0002046FFF723F92BE02A2D07D1002020638F
:102CF000282084F83D002046FEF736F994F83D0080
:102D000028280DD11048E06200202063202084F89C
:102D10003D00002084F83E002046FDF77DFE0FE0D8
:102D2000206B222801D0222D0AD1002020632020F0
:102D300084F83D00002084F83E002046FEF714F998
:102D400038BD0000811E00080000FFFF70B504467A
:102D50000D46164620E02046FFF7BAF908B10120DB
:102D600070BD681CC0B1FDF719FC801BA84200D8DB
:102D700095B900202063202084F83D00002084F8CD
:102D80003E00206C40F02000206400BF002084F84A
:102D90003C0000BF0120E3E720684069C0F38000E9
:102DA0000028D8D00020DBE72DE9F04104460D468D
:102DB00017461E46DDF818801CE0701CD0B1FDF7E8
:102DC000EDFBA0EB0800B04200D89EB900202063C4
:102DD000202084F83D00002084F83E00206C40F064
:102DE0002000206400BF002084F83C0000BF0120C8
:102DF000BDE8F081C5F3074001280AD12068406989
:102E0000A9B20840A9B2884201D101200BE00020FC
:102E100009E020688069A9B20840A9B2884201D1BE
:102E2000012000E00020B842C7D00020E0E72DE9F3
:102E3000F04104460D4616461F463DE020684069B5
:102E4000C0F38020E8B12068006840F40070216879
:102E500008606FF4806021684861002020632020B2
:102E600084F83D00002084F83E00206C40F004000F
:102E7000206400BF002084F83C0000BF0120BDE8B2
:102E8000F081701CC0B1FDF789FBC01BB04200D8B7
:102E900096B900202063202084F83D00002084F8AB
:102EA0003E00206C40F02000206400BF002084F829
:102EB0003C0000BF0120E2E7C5F3074001280AD12A
:102EC00020684069A9B20840A9B2884201D1012016
:102ED0000BE0002009E020688069A9B20840A9B28F
:102EE000884201D1012000E000200028A6D0002067
:102EF000C5E770B504460D46164632E020684069C5
:102F0000C0F30010A0B16FF01000216848610020EC
:102F10002063202084F83D00002084F83E00206CCF
:102F2000206400BF002084F83C0000BF012070BD79
:102F3000FDF734FB801BA84200D895B90020206320
:102F4000202084F83D00002084F83E00206C40F0F2
:102F50002000206400BF002084F83C0000BF012056
:102F6000E5E720684069C0F380100028C6D0002043
:102F7000DDE770B504460D46164620E02046FFF713
:102F8000A7F808B1012070BD681CC0B1FDF706FBB1
:102F9000801BA84200D895B900202063202084F827
:102FA0003D00002084F83E00206C40F020002064AA
:102FB00000BF002084F83C0000BF0120E3E7206848
:102FC0004069C0F3C0100028D8D00020DBE7000023
:102FD00000B587B0142102A8FDF76DF900BF0020ED
:102FE00001902E48006840F004002C490860084613
:102FF000006800F00400019000BF00BF00BF002087
:1030000001900846006840F08000086008460068AB
:1030100000F08000019000BF00BF00BF00200190C1
:103020000846006840F0010008600846006800F0AB
:103030000100019000BF00BF00BF002001900846C2
:10304000006840F0080008600846006800F00800CA
:10305000019000BF00BF00BF00200190084600683B
:1030600040F0020008600846006800F0020001908D
:1030700000BF00BF00224FF470410948FDF788FAF5
:103080004FF47040029001200390002004900590BE
:1030900002A90348FDF77CF907B000BD30380240B3
:1030A000000C024010B50B480B4908600B48486003
:1030B000002109488160C1604FF480410161002115
:1030C00041618161C1610162FDF7BEFB08B1FDF79D
:1030D00032F910BD005400401C000020A086010001
:1030E00000B587B0002003900490059006900190F1
:1030F00002901548154908604FF4C37048600021DC
:10310000124881604FF47A41C16000210161816100
:10311000FEF7FCFB08B1FDF70EF94FF48050039069
:1031200003A90A48FEF745FC08B1FDF704F90020A1
:103130000190029001A90548FEF78EFB08B1FDF74A
:10314000FAF807B000BD0000000400407000002045
:1031500010B50B480B4908604FF4E130486000217E
:1031600008488160C16001610C21416100218161D9
:10317000C161FEF77CFD08B1FDF7DDF810BD000070
:1031800000440040B000002000BFFEE770477047D9
:10319000704710B5FDF7EAFE10BD000000B593B012
:1031A000302107A8FDF787F8142102A8FDF783F85E
:1031B00000BF002001902448006840F08050224960
:1031C00008600846006800F08050019000BF00BF12
:1031D00000BF002001901D48006840F480401B495A
:1031E00008600846006800F48040019000BF00BFFE
:1031F0000220079001200A9010200B9002200D90D1
:1032000000210E9108210F9132211091022111917C
:103210000421129107A8FEF7BFF808B1FDF78BF85B
:103220000F20029002200390002004904FF4805061
:10323000059000200690012102A8FDF76DFF08B15E
:10324000FDF779F813B000BD40380240007000402F
:103250000548006840F47000034908604FF00060C2
:10326000014980390860704788ED00E010B50248D8
:10327000FEF724FC10BD00007000002010B50268AD
:10328000294B98420ED0B0F1804F0BD0274B98427B
:1032900008D0274B984205D0264B984202D0264BA7
:1032A000984203D122F070024B681A431E4B984299
:1032B00020D0B0F1804F1DD01C4B98421AD01C4B2F
:1032C000984217D01B4B984214D01B4B984211D0F8
:1032D0001A4B98420ED01A4B98420BD0194B984279
:1032E00008D0194B984205D0184B984202D0184B81
:1032F000984203D122F44072CB681A4322F0800333
:103300004C6943EA040202608B68C3620B68836203
:10331000054B984202D0084B984201D10B690363D8
:103320000123436110BD0000000001400004004083
:1033300000080040000C0040000401400040014033
:10334000004401400048014000180040001C0040BB
:103350000020004030B50C46816821F47F4142EAEC
:10336000032525432943816030BD0A46816821F049
:10337000700142F0070319438160704730B50B4676
:103380001446026A056A25F001050562816921F08B
:10339000F00141EA041122F00A021A43816102623B
:1033A00030BD30B50B461446056A25F010050562A0
:1033B0008169026A21F4704141EA043122F0A002DD
:1033C00042EA03128161026230BD00002DE9F84F2C
:1033D00004462068006920F44050E16808432168F1
:1033E00008612169A068084361690843E1690843ED
:1033F00000902068C06849F20C6188430099084336
:103400002168C8602068406920F44070A1690843C1
:1034100021684861E069B0F5004F75D1E349206843
:10342000884203D0E249206888426FD1FDF74CFF03
:10343000814602206168A0FB01510B461920A9FBBF
:1034400000712A463846FCF7BBFE6421B0FBF1F060
:103450004FEA001A02206168A0FB01510B461920B7
:10346000A9FB00712A463846FCF7AAFE074602204F
:103470006168A0FB01510B461920A9FB00B12A4647
:103480005846FCF79DFE6421B0FBF1F000EBC00153
:1034900001EB0010A7EB8000322101EBC00064219A
:1034A000B0FBF1F000F0F8000AEB400A022061687E
:1034B000A0FB01510B461920A9FB00712A46384692
:1034C000FCF77EFE074602206168A0FB01510B4617
:1034D0001920A9FB00B12A465846FCF771FE642169
:1034E000B0FBF1F000EBC00101EB0010A7EB800096
:1034F000322101EBC0006421B0FBF1F000F00700C5
:103500005044216888604FE16EE0FFE7FDF7CCFE94
:10351000814602206168A0FB01510B461920A9FBDE
:1035200000712A463846FCF74BFE6421B0FBF1F0EF
:103530004FEA001A02206168A0FB01510B461920D6
:10354000A9FB00712A463846FCF73AFE07460220DE
:103550006168A0FB01510B461920A9FB00B12A4666
:103560005846FCF72DFE6421B0FBF1F000EBC001E2
:1035700001EB0010A7EB8000322101EBC0006421B9
:10358000B0FBF1F000F0F8000AEB400A022061689D
:10359000A0FB01510B461920A9FB00712A463846B1
:1035A000FCF70EFE074602206168A0FB01500346AF
:1035B0001920A9FB00B12A465846FCF701FE6421F8
:1035C000B0FBF1F000EBC00101EB0010A7EB8000B5
:1035D000322101EBC0006421B0FBF1F000F00700E4
:1035E000504421688860DFE070492068884203D039
:1035F0006F49206888426BD1FDF766FE8146042042
:103600006168A0FB01510B461920A9FB00712A46F5
:103610003846FCF7D5FD824604206168A0FB0151C5
:103620000B461920A9FB00712A463846FCF7C8FD55
:103630006421B0FBF1F000EBC00101EB0010AAEB3C
:103640008000322101EB00106421B0FBF1F000F0AA
:10365000F00A04206168A0FB015003461920A9FB71
:1036600000712A463846FCF7ABFD6421B0FBF1F04F
:103670000AEB001A04206168A0FB01510B461920D7
:10368000A9FB00712A463846FCF79AFD074604203C
:103690006168A0FB015003461920A9FB00B12A462E
:1036A0005846FCF78DFD6421B0FBF1F000EBC00142
:1036B00001EB0010A7EB8000322101EB0010642128
:1036C000B0FBF1F000F00F005044216888606BE01F
:1036D000FDF7EAFD814604206168A0FB0150034626
:1036E0001920A9FB00712A463846FCF769FD82467D
:1036F00004206168A0FB015003461920A9FB00715A
:103700002A463846FCF75CFD6421B0FBF1F000EB83
:10371000C00101EB0010AAEB8000322101EB001088
:103720006421B0FBF1F000F0F00A04206168A0FB16
:10373000015003461920A9FB00712A463846FCF7C0
:103740003FFD6421B0FBF1F00AEB001A0420616830
:10375000A0FB017003461920A9FB005001463A4620
:103760002846FCF72DFD074604206168A0FB0150A8
:1037700003461920A9FB00B12A465846FCF720FD54
:103780006421B0FBF1F000EBC00101EB0010A7EBEE
:103790008000322101EB00106421B0FBF1F000F059
:1037A0000F00504421688860BDE8F88F0010014088
:1037B000001401402DE9F04104460D461746984695
:1037C000069E21E0701CF8B12EB1FCF7E7FEA0EBDD
:1037D0000800B04218D92068C06820F4D070216871
:1037E000C8602068406920F00100216848612020FD
:1037F00084F8390084F83A0000BF002084F83800CB
:1038000000BF0320BDE8F081206800682840A8427E
:1038100001D1012000E00020B842D3D00020F1E720
:1038200000BFFEE702480068C0F3022070470000B6
:103830000CED00E010B5002804DB0A07130E054A62
:10384000135406E00A07140E034A00F00F031B1F6F
:10385000D45410BD00E400E018ED00E002E008C818
:10386000121F08C1002AFAD170477047002001E0FA
:1038700001C1121F002AFBD170470246002002EA54
:1038800001030BB1012000E0002070472DE9F04159
:1038900005460E4614461F464FF00008F6B1ECB13F
:1038A000E7B1002060602060A06005F0070020B153
:1038B0003946304600F066FB606005F0010020B13B
:1038C0003946304600F014FA206005F0040038B1A3
:1038D0003946304600F085F9A06001E04FF0FF382E
:1038E0004046BDE8F0812DE9F04105460F4690467F
:1038F0001C46204600F074FC06467EB9A0780128DC
:1039000001D045F08005607843463A462946D4F810
:1039100004C0E04706460EB16FF003063046BDE82E
:10392000F081F0B585B007460D461446002003909F
:103930000490009001900290204600F051FC064651
:10394000AEB9A5B12346082203A9F720FFF7CBFFA4
:10395000064676B9694603A800F054F804F110034E
:103960002A4669463846FFF791FF064601E04FF0C8
:10397000FF36304605B0F0BD70B504460D4628460A
:1039800000F02EFC064656B92B4601222146F420B3
:10399000FFF7A9FF0646207800F0030020703046AC
:1039A00070BDF8B50446052600200090204600F0C2
:1039B00017FC054625BB1DE0234601226946D020A1
:1039C000FFF791FF054685B99DF8000060280CD1EE
:1039D0009DF800002070204600F0CDF805461DB986
:1039E000204600F055FB054606E00120E1688847C7
:1039F000701EC6B2002EDFD100BF0EB96FF00105F8
:103A00002846F8BD30B505782B0345782A0185781E
:103A10002C0943EA020525430D60C5782B0305797F
:103A20002A0145792C0943EA020525434D60857931
:103A30002B02C27943EA02058D6030BD2DE9F047C3
:103A400086B00546884614461E460A2C00DD0A2428
:103A5000304600F0C5FB8146B9F1000F37D18DB378
:103A6000B8F1000F33D074B398F800008DF804005B
:103A7000B078012809D0002705E0E85D00F07F005C
:103A8000E855781CC7B2A742F7DB012C0BDD2346B3
:103A9000424601A9284600F01FFB0120C0EB44006C
:103AA0001FFA80FA00E0A24629787078534601AAEE
:103AB000D6F808C0E0478146B9F1000F09D06FF091
:103AC000030906E003E0FFE76FF0020901E04FF0B1
:103AD000FF39484606B0BDE8F087F8B506460D4602
:103AE000284600F07DFB044694B929466846FFF756
:103AF00043FF044634B99DF8000018B1284600F091
:103B0000FFFB044624B92946304600F057FD044621
:103B10002046F8BDF8B506460C46204600F060FB8E
:103B2000054635BB21466846FFF726FF054635B9F1
:103B30009DF8000018B1204600F0E2FB0546C5B92B
:103B400031460720FFF799FE30B1224604F13801D3
:103B5000304600F096FC05465DB931461820FFF767
:103B60008CFE30B1224604F13801304600F014FCDE
:103B700005462846F8BDFEB50546E0200290002027
:103B800001900526B6200090284600F029FB044647
:103B90002CBB2B460122694602A8FFF74FFF0446C3
:103BA000ECB900BF0220E96888472B46012201A931
:103BB000F320FFF798FE044654B9301EA6F1010128
:103BC000CEB205D09DF8040000F001000028E9D134
:103BD0009DF8040000F0010008B16FF005042046D4
:103BE000FEBD2DE9F04F84460A464FF4C838506AAE
:103BF000A0F59634DCF808008503D08B0105B2F9F6
:103C0000200000FB04F6A5EB0109A9EB060909F564
:103C100080404FEAE07900EB59494FEAE93392F9E5
:103C2000229009FB04F04FEAE07900EB99594FEA42
:103C3000A92592F81C9009FB04F04FEAE07900EB0B
:103C400059594FEAE92101F5004905FB09F04FEA0E
:103C5000E07900EB99594FEAA92909F50016B2F964
:103C60001A9009FB06F909F500504FEAE07900EBDC
:103C700099494FEAA93503FB05F108464FEAE17B74
:103C800001EB5B4B4FEAEB3B8A464FEAE17E01EBEF
:103C90005E4E4FEAEE3E0BFB0EF94FEAE97B09EB75
:103CA0005B6B4FEAEB1692F8189009FB06F04FEAAF
:103CB000E07900EB1979A1EB2913002B01DA002040
:103CC00000E018460346B3F1C85F02DD4FF0C8506C
:103CD00000E01846034618464FEAE37903EB19590A
:103CE0004FEA2937474500D947463846BDE8F08FA7
:103CF0002DE9F34F89B08846A0480390A048029070
:103D0000D8F82400C1174FF4FA32841A61F1000583
:103D1000A4FB041005FB040004FB0503B8F9100024
:103D2000C217A1FB00C903FB009001FB0201CDE912
:103D300006C1B8F90E00C217A0FB041302FB04323F
:103D400000FB05204FF400334FF0000CA1FB0329CA
:103D500000FB039001FB0C039446DDE906011CEB1C
:103D6000000043EB0102CDE90602B8F90C00C317CD
:103D70004FF0000C0821A0FB0C2903FB0C9300FB67
:103D800001339446DDE906011CEB000043EB010220
:103D9000CDE90602A4FB041005FB040004FB0503A7
:103DA000B8F90A004FEAE07CA1FB002903FB009070
:103DB00001FB0C01CDE900214FF480720023009833
:103DC000FCF72FFAB8F90820D317A146A2FB09CEB9
:103DD00003FB04E302FB05334FF480594FF0000A64
:103DE000ACFB092E03FB09E30CFB0A33841841EBFF
:103DF000030500214FF40042CDE90412DDE904017E
:103E000003196941B8F806000022A3FB00C901FBB1
:103E1000009003FB020102236046CDE900C1FCF7DC
:103E200000FA04460D46002184EA01006940084377
:103E30007DD009980068C0F5801600274FF0004C2F
:103E400000223146A1FB0C3907FB0C9006FB020255
:103E5000DDE90601181A62EB010240F635414FF028
:103E6000000CA0FB013902FB019100FB0C10224663
:103E7000CDE900302B46DDE90001FCF7D2F906461A
:103E80000F464FF40052002330463946FCF7C9F97B
:103E9000B8F91620D317A0FB029C01FB02C100FB5E
:103EA000031A4FF40052002330463946FCF7B9F9A3
:103EB0000A46A9FB00130AFB003009FB02000A4670
:103EC000CDE900204FF000720023DDE90001FCF78E
:103ED000A8F904460D46B8F91400C117A0FB0693D3
:103EE00001FB063100FB07114FF400220023484676
:103EF000FCF797F9CDE90601331947EB0500DDE939
:103F0000062113EB020941414FF480720023484619
:103F1000FCF787F9B8F91220102382FB03238618D7
:103F200041EB0307022200233046394600E01EE041
:103F3000FCF777F964234FF0000CA0FB032901FB89
:103F4000039100FB0C11CDE900218022634600980B
:103F5000FCF767F9834603998B4502D2DDF80CB074
:103F600007E00298834504D9DDF808B001E0DDF8E8
:103F70000CB058460BB0BDE8F08F0000C0C62D0055
:103F8000C0D8A7002DE9F0430246204D42F2341676
:103F900057684FEAD70C0F88ACEB4703B1F902C062
:103FA0000CFB03F74FEAE77C07EB5C5C4FEAEC2382
:103FB0000F88D2F804C0C7EB1C1404FB04FC4FEAC2
:103FC000EC780CEB18584FEA2838B1F9049008FB4C
:103FD00009F74FEAE77807EB98484FEAA8341F192A
:103FE0004F62D1F824C00CEB8C0C0CF180074FEA27
:103FF000E77C07EB1C6C4FEA2C20A84201DA28462C
:1040000002E0B04200DD3046BDE8F08360F0FFFF23
:10401000CB78027863F38402027070470B780278E1
:1040200063F38402027070474B78027863F347129F
:10403000027070470B79027863F347120270704781
:1040400010B5002821D0114B0022001F196803E091
:10405000814203D80A4649680029F9D152B1136850
:10406000841A9C4204D1006818441060104602E093
:10407000506000E0186039B102680B1A934203D116
:104080000B681A4402604968416010BD14000020AA
:1040900070B588B0044688261C2101A8FCF70BF9EE
:1040A00023461A2201A93046FFF71DFC054685B9B3
:1040B000214601A800F0D7F8E1262346072201A9EE
:1040C0003046FFF710FC05461DB9214601A800F057
:1040D000A7F8284608B070BD70B50446012009E075
:1040E000255C0126C6EB40068D55155C01F8105085
:1040F000451CE8B29842F3DB70BD000090B000BFF1
:10410000FCF740FFFFF74AF8FEF762FFFEF7CAFF31
:10411000FEF7E6FFFFF71CF80D48FDF735FCEC2035
:104120008DF8010001208DF802000A4801900A482C
:1041300002900A4803906846FFF733FC4FF47A7305
:104140000D2207A10A48FDF70FFE684600F0B3F9FB
:10415000700000201D450008694500080F45000853
:1041600043656369457374556E546573740000004C
:10417000B0000020F0B50B30154D20F007010024F1
:10418000144A0FE003688B420BD38B4205D95E1AA9
:1041900043184768C3E9006700E04368136002C042
:1041A00004E0021D10680028ECD12046002802D14E
:1041B000286808B10020F0BD064A07481060074A89
:1041C000121A22F00702C0E9002401202860D7E774
:1041D0001800002014000020F4000020F00200204D
:1041E000014629B14A681AB18A680AB1CA6812B987
:1041F0004FF0FF3000E000207047027802F0070225
:104200008A708278C2F382020A70827852094A70F8
:10421000C278C2F38202CA70C27852090A7170472A
:10422000F0B50A4602F11001077890F801C047EA9C
:104230000C273FB24F8387780F77C7787FB23C0156
:10424000077907F00F0344EA0307CF8347797FB26A
:104250003E0107793D1146EA05070F8487797FB251
:1042600081F82270F0BD10B50A4602F11001037802
:10427000447843EA04230B808378C47843EA042318
:104280001BB24B800379447943EA04231BB28B8031
:104290008379C47943EA0423CB80037A447A43EADE
:1042A00004231BB20B81837AC47A43EA04231BB232
:1042B0004B81037B447B43EA04231BB28B81837BCA
:1042C000C47B43EA04231BB2CB81037C447C43EAD6
:1042D00004231BB20B82837CC47C43EA04231BB2FD
:1042E0004B82037D447D43EA04231BB28B82837D92
:1042F000C47D43EA04231BB2CB82437E0B7610BD00
:104300003EB504462346042202A9F220FFF7EBFA49
:1043100005466DB9694602A8FFF76FFF2046FFF713
:104320002AFC054625B92146684600F023F80546D3
:1043300028463EBD1CB5D02001900A20012301AAC9
:10434000EC2100900848FCF701FD0A200123074AF0
:10435000EC2100900448FCF77DFB0A23012203496D
:104360000348FDF701FD1CBD1C00002000000020DB
:10437000B000002070B504460D462A4621461F2095
:1043800000F07FF806462EB92A4621461F2000F08D
:1043900003F80646304670BD2DE9FC4104460F4641
:1043A0001546F52001902B46012269469DF8040030
:1043B000FFF799FA0646A6B904F0080018B1394685
:1043C0006846FFF725FE04F0100018B1394668462C
:1043D000FFF730FE2B460122694601A8FFF72EFBAE
:1043E00006463046BDE8FC81FEB505460E46F22085
:1043F0000090A87800F0070002903346012202A93D
:104400006846FFF71BFB04468CB9F4200090334646
:10441000012201A99DF80000FFF765FA044634B9AE
:104420003346012201A96846FFF708FB04462046EF
:10443000FEBD2DE9FC4104460F461546F4200190CF
:104440002B46012269469DF80400FFF74CFA064608
:10445000A6B904F0010018B139466846FFF7DEFD41
:1044600004F0020018B139466846FFF7DDFD2B461F
:104470000122694601A8FFF7E1FA06463046BDE889
:10448000FC812DE9F04104460D461646012704F053
:10449000040020B131462846FFF7A6FF074604F086
:1044A000030028B1324629462046FFF7C2FF0746DF
:1044B0003846BDE8F0810EB5044601213A20015589
:1044C000052084F8380002213920015504213B20C1
:1044D000015501213C200155012545F0020545F01B
:1044E000040545F0100545F0080521462846FFF76C
:1044F00011FB21460320FFF7F0FA07E04620E168B0
:104500008847224669460720FFF70BFAF6E710B501
:1045100004462046FBF728FF10BD00002DE9FF41AF
:1045200082B0054616461F464FF001080A200123B7
:1045300003AA294600900B48FCF708FC804644B9C2
:104540000A203B463246294600900648FCF782FA8C
:1045500004460CB94FF000084FFA88F006B0BDE8E9
:10456000F08100001C0000202DE9F84F06460F46A0
:1045700090461C464FF0010A601CFFF7FBFD054604
:104580002F7022464146681CFBF77CFE0A200090F3
:10459000601C83B22A4631460748FCF7D7FB8146A8
:1045A000B9F1000F01D14FF0000A2846FFF748FD8E
:1045B0004FFA8AF0BDE8F88F1C0000207CB5064653
:1045C0000C46F42001902346012269469DF8040020
:1045D000FFF789F905465DB99DF8000066F3010013
:1045E000009023460122694601A8FFF727FA0546F5
:1045F00028467CBD0000000000000000010203040A
:104600000607080900000000010203042C46000808
:10461000000000201C0000005C380008484600082C
:104620001C000020D40600006C38000800000000C8
:104630000000000010000000010000000024F40051
:08464000000000000000000072
:040000050800018965
:00000001FF
